S01900004763634170706C69636174696F6E3136342E73726563EF
S11300000C942A000C9447000C9447000C9447006D
S11300100C9447000C9447000C9447000C94470040
S11300200C9447000C9447000C9447000C94470030
S11300300C9447000C9453000C9447000C94470014
S11300400C9447000C9447000C9447000C94470010
S11300500C94470011241FBECFE5D8E0DEBFCDBF0E
S113006010E0A0E6B0E0E4EDF1E002C005900D92EE
S1130070A236B107D9F720E0A2E6B0E001C01D9294
S1130080AA36B207E1F70E94B1000C94E8000C9480
S1130090000090BD89B91BB88AB188618AB9579AA2
S11300A086E880BD08951F920F920FB60F92112417
S11300B08F938CB180936900823679F018F481367D
S11300C031F01CC08636A9F0893669F017C081E08A
S11300D0809368008093670011C01092680081E0EB
S11300E0809367000BC081E080936300809362007B
S11300F005C01092630081E0809362008F910F909D
S11301000FBE0F901F901895999B05C081E08093B6
S1130110600080936500999909C010926000109264
S1130120650080916600181691F40895909160001E
S1130130809166009817A1F080916500882339F0BA
S113014083E68CB9C19881E08093640005C084E69D
S11301508CB9C19A1092640080916000809366000B
S113016008958FEF8ABB87BB14BA1BBA87E088BB9C
S113017083E390E00E9449007894D6E6C9E60E94A1
S113018084008FEC97E00197F1F700C000008091A4
S11301906700882359F080916800882319F0C0987B
S11301A0D99A02C0C09AD9981092670080916200CF
S11301B0882329F380916400882309F380916300E4
S11301C0882319F0C298CCB9DACFC29ADCB9D7CF58
S10701D0F894FFCFCD
S10501D4010024
S9030000FC
